:200000000C945E000C9486000C9486000C9486000C9486000C9486000C9486000C948600D8
:200020000C9486000C9486000C9486000C9486000C9486000C9486000C9486000C94860090
:200040000C94F1030C9486000C94BF030C9499030C9486000C9486000C9486000C948600B0
:200060000C9486000C94860000000000240027002A0000000000250028002B000404040437
:200080000404040402020202020203030303030301020408102040800102040810200102F1
:2000A0000408102000000008000201000003040700000000000000003B04060611241FBE8E
:2000C000CFEFD8E0DEBFCDBF22E0A8E9B1E001C01D92A735B207E1F711E0A0E0B1E0ECE3AF
:2000E000F1E102C005900D92A839B107D9F710E0CDE5D0E004C02197FE010E947106CC35E8
:20010000D107C9F70E946D040C9491080C940000CF92DF92EF92FF920F931F93CF93DF934F
:200120006C017A018B01C0E0D0E0CE15DF0589F0D8016D918D01D601ED91FC910190F08172
:20014000E02DC6010995892B11F47E0102C02196ECCFC701DF91CF911F910F91FF90EF90CB
:20016000DF90CF900895089580E090E00895FC01538D448D252F30E0842F90E0821B930B9A
:20018000541710F0CF96089501970895FC01918D828D981761F0828DDF01A80FB11D5D962C
:2001A0008C91928D9F5F9F73928F90E008958FEF9FEF0895FC01918D828D981731F0828D13
:2001C000E80FF11D858D90E008958FEF9FEF0895FC01918D228D892F90E0805C9F4F821BF9
:2001E00091098F739927089580EB91E00E94E80021E0892B09F420E0822F0895FC01848D92
:20020000DF01A80FB11DA35ABF4F2C91848D90E001968F739927848FA689B7892C93A0896D
:20022000B1898C9180648C93938D848D981306C00288F389E02D80818F7D80830895EF9281
:20024000FF920F931F93CF93DF93EC0181E0888F9B8D8C8D981305C0E889F989808185FD59
:2002600024C0F62E0B8D10E00F5F1F4F0F731127E02E8C8DE8120CC00FB607FCFACFE88969
:20028000F989808185FFF5CFCE010E94FE00F1CF8B8DFE01E80FF11DE35AFF4FF0820B8FB1
:2002A000EA89FB898081806207C0EE89FF896083E889F98980818064808381E090E0DF919F
:2002C000CF911F910F91FF90EF900895CF93DF93EC01888D8823C9F0EA89FB89808185FD0F
:2002E00005C0A889B9898C9186FD0FC00FB607FCF5CF808185FFF2CFA889B9898C9185FF71
:20030000EDCFCE010E94FE00E7CFDF91CF910895009769F0FC0101900020E9F73197AF0199
:20032000481B590BBC0180EB91E00C94880080E090E008958F929F92AF92BF920F931F9390
:20034000CF93DF93CDB7DEB7A1970FB6F894DEBF0FBECDBF19A2423008F44AE08E010F5DE3
:200360001F4F842E912CA12CB12CA50194010E944F06E62FB901CA0101501109EA3014F49D
:20038000E05D01C0E95CD801EC93232B242B252B61F7C8010E948801A1960FB6F894DEBF64
:2003A0000FBECDBFDF91CF911F910F91BF90AF909F908F900895FC0144815581809151024F
:2003C000909152028417950780F080914D0290914E02009751F0608171816115710529F080
:2003E0000E94830821E0892B09F020E0822F08950E946E080F931F93CF93DF93EC0188819E
:200400009981009729F02A813B812617370788F48B016F5F7F4F0E94A407009761F099833B
:2004200088831B830A832C813D81232B11F4FC01108281E001C080E0DF91CF911F910F9197
:200440000895EF92FF920F931F93CF93DF93EC017B018A01BA010E94FA0128813981811184
:200460000DC02115310519F0C9010E940C07198218821D821C821B821A8206C01D830C831B
:20048000B701C9010E947C08CE01DF91CF911F910F91FF90EF90089540E050E061E371E035
:2004A0008DE492E00E9421028DE492E00895FC0111821082138212821582148261157105B0
:2004C00051F0FB0101900020E9F73197AF01461B570B0C94210208958F929F92BF92CF92AF
:2004E000DF92EF92FF920F931F93CF93DF9300D000D000D0CDB7DEB7BB24B39480EB91E0C6
:200500000E94E800892B09F479C080EB91E00E94C600F82E89831A8200915102109152027C
:200520000F5F1F4FB8018DE492E00E94FA01882399F020914D0230914E02809151029091DC
:200540005202BE016F5F7F4F820F931F0E947C0810935202009351028AE0F812CFCFB09252
:200560009801E0904D02F0904E02E114F10431F200915102109152020115110509F4BECFB7
:2005800047016401EFEF8E1A9E0AF6018081082E000C990B0E940C06892B99F7015011093F
:2005A0000E0D1F1DF8018081082E000C990B0E940C06892B89F4A8014F5F5F4F4C195D094F
:2005C0005093520240935102EC14FD0458F4B601C7010E94730806C00C151D0560F3015028
:2005E0001109E0CFE0914D02F0914E028091510290915202E80FF91F108280CF809198012E
:200600008823E9F068E171E0CE0101960E945702CE0101960E94DB01182F89819A810E9469
:200620000C07112361F08EE191E00E9488018FE291E00E9488010E944C02109298018091CE
:200640009801882309F441C062E371E0CE0101960E945702CE0101960E94DB01182F89812C
:200660009A810E940C07112381F186E391E00E9488018FE291E00E94880180EB91E00E9474
:200680006601E091C201F091C30180818F7E8083E091C201F091C3018081877F8083E09175
:2006A000C201F091C30180818F778083E091C201F091C30180818F7D80838091CA018093B0
:2006C000C9010E944C0210929801809198018823C1F085E491E00E94880140915102509115
:2006E000520260914D0270914E0280EB91E00E9488008FE291E00E9488010E944C02109270
:20070000980126960FB6F894DEBF0FBECDBFDF91CF911F910F91FF90EF90DF90CF90BF90F2
:200720009F908F9008950E94F40081110C946C0208951F920F920FB60F9211242F933F937A
:200740004F935F936F937F938F939F93AF93BF93EF93FF9380EB91E00E94FE00FF91EF9129
:20076000BF91AF919F918F917F916F915F914F913F912F910F900FBE0F901F9018951F9211
:200780000F920FB60F9211242F938F939F93EF93FF93E091C001F091C1018081E091C60145
:2007A000F091C70182FD12C090818091C9018F5F8F732091CA01821751F0E091C901F0E062
:2007C000E055FE4F958F8093C90101C08081FF91EF919F918F912F910F900FBE0F901F90FA
:2007E00018951F920F920FB60F9211242F933F938F939F93AF93BF9380919A0190919B017A
:20080000A0919C01B0919D013091990123E0230F2D3720F40196A11DB11D05C026E8230FFB
:200820000296A11DB11D2093990180939A0190939B01A0939C01B0939D0180919E01909158
:200840009F01A091A001B091A1010196A11DB11D80939E0190939F01A093A001B093A101F2
:20086000BF91AF919F918F913F912F910F900FBE0F901F901895E0EBF1E01382128288EE66
:2008800093E0A0E0B0E084839583A683B7838AE091E09183808385EC90E09587848784ECE9
:2008A00090E09787868780EC90E0918B808B81EC90E0938B828B82EC90E0958B848B86EC13
:2008C00090E0978B868B118E128E138E148E61E371E08DE492E00C945702789484B582605B
:2008E00084BD84B5816084BD85B5826085BD85B5816085BD80916E00816080936E0010921E
:20090000810080918100826080938100809181008160809381008091800081608093800042
:200920008091B10084608093B1008091B00081608093B00080917A00846080937A008091DB
:200940007A00826080937A0080917A00816080937A0080917A00806880937A001092C10052
:20096000CDE9D0E0FE01249109E810E0F8018491882399F090E0880F991FFC01E859FF4FEF
:20098000A591B4918E589F4FFC01459154918FB7F8949C91292B2C938FBFE091C001F0913D
:2009A000C10182E08083E091BC01F091BD011082E091BE01F091BF0187E080831092C801CB
:2009C000E091C401F091C50186E08083E091C201F091C301808180618083E091C201F0911E
:2009E000C301808188608083E091C201F091C301808180688083E091C201F091C301808168
:200A00008F7D8083F1EBEF2EF0E0FF2ECC24C394D12C8FB7F89440919A0150919B016091E1
:200A20009C0170919D018FBF3FB7F89480919E0190919F01A091A001B091A10126B5A89B66
:200A400005C02F3F19F00196A11DB11D3FBFBA2FA92F982F8827820F911DA11DB11DE2E075
:200A6000880F991FAA1FBB1FEA95D1F78093AC019093AD01A093AE01B093AF018091A8011D
:200A80009091A901A091AA01B091AB014A015B01881A990AAA0ABB0A28EE821623E0920614
:200AA000A104B10408F49FC04093A8015093A9016093AA017093AB018091A6019091A701AA
:200AC000892B29F4D092A701C092A60104C01092A7011092A6013091A601F7018491FE0177
:200AE0002491F8019491992309F43EC0882339F1833091F038F48130A9F0823001F584B50C
:200B00008F7D12C0873091F08830A1F08430B9F4809180008F7D03C0809180008F7780930B
:200B200080000DC084B58F7784BD09C08091B0008F7703C08091B0008F7D8093B000E92FED
:200B4000F0E0EE0FFF1FCF018E589F4FFC01A591B4918FB7F8949C91311103C02095292389
:200B600001C0292B2C938FBF8AE591E00E9488016091A2017091A3018091A4019091A50192
:200B80004AE00E949A018FE691E00E9488016091AC017091AD018091AE019091AF014AE0D5
:200BA0000E949A0185E891E00E9488018091AC019091AD01A091AE01B091AF018090A201DE
:200BC0009090A301A090A401B090A501BC01CD01681979098A099B094AE00E949A018FE2F9
:200BE00091E00E9488018091AC019091AD01A091AE01B091AF018093A2019093A301A0934B
:200C0000A401B093A5010E94930303CF80914D0290914E020C940C0791110C9415068032A9
:200C200019F089508550C8F708959927882708952F923F924F925F926F927F928F929F92CD
:200C4000AF92BF92CF92DF92EF92FF920F931F93CF93DF93CDB7DEB7CA1BDB0B0FB6F894C1
:200C6000DEBF0FBECDBF09942A88398848885F846E847D848C849B84AA84B984C884DF8083
:200C8000EE80FD800C811B81AA81B981CE0FD11D0FB6F894DEBF0FBECDBFED010895A1E2BB
:200CA0001A2EAA1BBB1BFD010DC0AA1FBB1FEE1FFF1FA217B307E407F50720F0A21BB30BD3
:200CC000E40BF50B661F771F881F991F1A9469F760957095809590959B01AC01BD01CF0192
:200CE0000895EE0FFF1F0590F491E02D0994CF93DF938230910510F482E090E0E0915502BE
:200D0000F091560220E030E0C0E0D0E0309711F14081518148175907C0F04817590761F4BB
:200D200082819381209719F09B838A832BC0909356028093550226C02115310519F042172D
:200D4000530718F49A01BE01DF01EF010280F381E02DDCCF2115310509F1281B390B243014
:200D6000310590F412968D919C9113976115710521F0FB019383828304C0909356028093B6
:200D80005502FD01329644C0FD01E20FF31F81939193225031092D933C933AC020915302BE
:200DA00030915402232B41F42091020130910301309354022093530220910001309101018A
:200DC0002115310541F42DB73EB74091040150910501241B350BE0915302F0915402E217C7
:200DE000F307A0F42E1B3F0B2817390778F0AC014E5F5F4F2417350748F04E0F5F1F509376
:200E00005402409353028193919302C0E0E0F0E0CF01DF91CF9108950F931F93CF93DF9365
:200E2000009709F48CC0FC0132971382128200915502109156020115110581F4208131810E
:200E4000820F931F20915302309154022817390779F5F0935402E093530271C0D80140E07A
:200E600050E0AE17BF0750F412962D913C911397AD012115310509F1D901F3CF9D01DA016D
:200E80003383228360817181860F971F8217930769F4EC0128813981260F371F2E5F3F4F53
:200EA000318320838A819B8193838283452B29F4F0935602E093550242C01396FC93EE93AC
:200EC0001297ED01499159919E01240F351FE217F30771F480819181840F951F02961196A0
:200EE0009C938E938281938113969C938E931297E0E0F0E0D80112968D919C91139700974C
:200F000019F0F8018C01F6CF8D919C9198012E5F3F4F820F931F20915302309154022817DF
:200F2000390769F4309729F4109256021092550202C0138212821093540200935302DF9101
:200F4000CF911F910F910895A0E0B0E0EAEAF7E00C941C06EC01009721F4CB010E94770643
:200F6000B8C0FC01E60FF71F9C0122503109E217F30708F4ACC0D9010D911C911197061763
:200F80001707B0F00530110508F49FC0C80104978617970708F499C002501109061B170B4A
:200FA000019311936D937C93CF010E940C078DC05B01A01AB10A4C01800E911EA091550235
:200FC000B091560240E050E0E12CF12C109709F44AC0A815B905D1F56D907C9011976301FA
:200FE00082E0C80ED11CCA14DB0480F1A3014A195B096A0182E0C80ED11C1296BC90129706
:201000001396AC91B5E0CB16D10440F0B282A38351834083D9016D937C930AC00E5F1F4FF0
:20102000C301800F911FF90191838083EB2DFA2FE114F10431F0D7011396FC93EE93129716
:2010400044C0F0935602E09355023FC08D919C9111974817590708F4AC017D0112960D90CA
:20106000BC91A02DB3CF809153029091540288159905E1F446175707C8F48091000190913D
:201080000101009741F48DB79EB74091040150910501841B950BE817F907C8F4F093540259
:2010A000E0935302F901718360830FC0CB010E9477067C01009759F0A801BE010E947308FB
:2010C000CE010E940C07C70104C0CE0102C080E090E0CDB7DEB7EEE00C94380681E090E009
:2010E000F8940C949108FB01DC0102C001900D9241505040D8F70895FB01DC0101900D92CA
:201100000020E1F70895FB01DC014150504030F08D910190801919F40020B9F7881B990BB4
:20112000089510E0CDE5D0E004C0FE010E9471062196CE35D107C9F7F894FFCF00005702DF
:201140008000000000001F018800B7006601E800C600DA00626567696E0073746172746925
:201160006E6720626567696E2829000D0A00656E64007374617274696E6720656E642829C2
:201180000077726F6E6720636F6D6D616E6420212121203A200070726576696F7573206D1C
:2011A0006963726F732829203A20002C2063757272656E74206D6963726F732829203A207D
:2011C000002C206C6F6F7020696E74657276616C203A2000FFFFFFFFFFFFFFFFFFFFFFFF16
:2011E000FFFFFFFFFFFFFFFFFFFFFFFFFFFFFFFFFFFFFFFFFFFFFFFFFFFFFFFFFFFFFFFF0F
:201200006D6963726F732829203A20002C2063757272656E74206D6963726F732829203ACF
:2012200020002C206C6F6F7020696E74657276616C203A200000FFFFFFFFFFFFFFFFFFFF93
:20124000FFFFFFFFFFFFFFFFFFFFFFFFFFFFFFFFFFFFFFFFFFFFFFFFFFFFFFFFFFFFFFFFAE
:20126000FFFFFFFFFFFFFFFFFFFFFFFFFFFFFFFFFFFFFFFFFFFFFFFFFFFFFFFFFFFFFFFF8E
:20128000FFFFFFFFFFFFFFFFFFFFFFFFFFFFFFFFFFFFFFFFFFFFFFFFFFFFFFFFFFFFFFFF6E
:2012A000FFFFFFFFFFFFFFFFFFFFFFFFFFFFFFFFFFFFFFFFFFFFFFFFFFFFFFFFFFFFFFFF4E
:207800000C94343C0C94513C0C94513C0C94513C0C94513C0C94513C0C94513C0C94513C1D
:207820000C94513C0C94513C0C94513C0C94513C0C94513C0C94513C0C94513C0C94513CE0
:207840000C94513C0C94513C0C94513C0C94513C0C94513C0C94513C0C94513C0C94513CC0
:207860000C94513C0C94513C11241FBECFEFD8E0DEBFCDBF11E0A0E0B1E0ECE9FFE702C07E
:2078800005900D92A230B107D9F712E0A2E0B1E001C01D92AD30B107E1F70E942D3D0C94CC
:2078A000CC3F0C94003C982F9595959595959595905D8F708A307CF0282F295A8091C000B5
:2078C00085FFFCCF9093C6008091C00085FFFCCF2093C6000895282F205DF0CF982F8091CF
:2078E000C00085FFFCCF9093C6000895EF92FF920F931F93EE24FF2487018091C00087FD7B
:2079000017C00894E11CF11C011D111D81E4E81682E4F8068FE0080780E0180770F3E09106
:207920000401F091050109958091C00087FFE9CF8091C6001F910F91FF90EF9008950E949A
:20794000763C982F8091C00085FFFCCF9093C60091362CF490330CF09053892F08959755DB
:20796000892F08951F930E949F3C182F0E949F3C1295107F810F1F9108951F93182F882308
:2079800021F00E94763C1150E1F71F9108951F93182F0E94763C803249F0809103018F5FC1
:2079A000809303018530C1F01F9108958091C00085FFFCCF84E18093C6008091C00085FF4A
:2079C000FCCF1093C6008091C00085FFFCCF80E18093C6001F910895E0910401F0910501CF
:2079E00009951F9108950E94763C803241F0809103018F5F80930301853081F00895809177
:207A0000C00085FFFCCF84E18093C6008091C00085FFFCCF80E18093C6000895E0910401AC
:207A2000F09105010995089540E951E08823A1F02D9A28EE33E0FA013197F1F72150304072
:207A4000D1F72D9828EE33E0FA013197F1F721503040D1F7815061F708953F924F925F92B3
:207A60006F927F928F929F92AF92BF92CF92DF92EF92FF920F931F93CF93DF93000080E1A3
:207A80008093C4001092C50088E18093C10086E08093C2005098589A259A81E00E94143D43
:207AA00024E1F22E9EE1E92E85E9D82E0FE0C02E10E1B12EAA24A394B1E49B2EA6E58A2E44
:207AC000F2E57F2EE0E26E2E79E4572E63E5462E50E5352E0E94763C8033B1F18133B9F187
:207AE000803409F46FC0813409F476C0823409F485C0853409F488C0803531F1823521F128
:207B0000813511F1853509F485C0863509F48DC0843609F496C0843709F403C1853709F46A
:207B200072C1863709F466C0809103018F5F80930301853079F6E0910401F0910501099559
:207B40000E94763C803351F60E94F33CC3CF0E94763C803249F78091C00085FFFCCFF0928C
:207B6000C6008091C00085FFFCCF9092C6008091C00085FFFCCF8092C6008091C00085FFEA
:207B8000FCCF7092C6008091C00085FFFCCF6092C6008091C00085FFFCCF5092C6008091A1
:207BA000C00085FFFCCF4092C6008091C00085FFFCCF3092C6008091C00085FFFCCFB09214
:207BC000C60088CF0E94763C863808F4BDCF0E94763C0E94F33C7ECF0E94763C803809F473
:207BE0009CC0813809F40BC1823809F43CC1883909F48FC080E00E94C73C6CCF84E10E949F
:207C0000BD3C0E94F33C66CF85E00E94BD3C0E94F33C60CF0E94763C809306010E94763CA3
:207C2000809307010E94F33C55CF0E94763C803309F41DC183E00E94BD3C80E00E94C73C4F
:207C400049CF0E94763C809309020E94763C8093080280910C028E7F80930C020E94763C88
:207C6000853409F415C18091080290910902892B89F000E010E00E94763CF801E85FFE4F53
:207C800080830F5F1F4F80910802909109020817190788F30E94763C803209F045CF8091E0
:207CA0000C0280FF01C16091060170910701660F771F7093070160930601A0910802B091E8
:207CC00009021097C9F0E8E0F1E09B01AD014E0F5F1FF999FECF32BD21BD819180BDFA9A6C
:207CE000F99A2F5F3F4FE417F50799F76A0F7B1F70930701609306018091C00085FFFCCF16
:207D0000F092C6008091C00085FFFCCFB092C600E1CE83E00E94C73CDDCE82E00E94C73C8A
:207D2000D9CE0E94763C809309020E94763C809308028091060190910701880F991F909306
:207D40000701809306010E94763C853409F4A6C080910C028E7F80930C020E94763C80323E
:207D600009F0B8CE8091C00085FFFCCFF092C600609108027091090261157105B9F140E05F
:207D800050E080910C02A82FA170B82FB27011C0BB2309F45CC0E0910601F0910701319613
:207DA000F0930701E09306014F5F5F4F46175707E8F4AA2369F3F999FECF209106013091CA
:207DC000070132BD21BDF89A90B58091C00085FFFCCF9093C6002F5F3F4F30930701209354
:207DE00006014F5F5F4F4617570718F38091C00085FDE5CE8091C00085FFF8CFE0CE81E029
:207E00000E94C73C67CE0E94763C803209F08CCE8091C00085FFFCCFF092C6008091C000F6
:207E200085FFFCCFE092C6008091C00085FFFCCFD092C6008091C00085FFFCCFC092C6003B
:207E40008091C00085FFFCCFB092C60043CEE0910601F091070194918091C00085FFFCCFA3
:207E60009093C6009CCF80E10E94C73C33CE0E94763C0E94763C182F0E94763C112309F433
:207E800083C0113009F484C08FE00E94C73C22CE80910C02816080930C02E5CE80910C0226
:207EA000816080930C0259CF809107018823880F880B8A2180930B0280910601909107019E
:207EC000880F991F90930701809306018091080280FF09C0809108029091090201969093AA
:207EE000090280930802F894F999FECF1127E0910601F0910701C8E0D1E0809108029091A1
:207F00000902103091F40091570001700130D9F303E000935700E895009157000170013067
:207F2000D9F301E100935700E895099019900091570001700130D9F301E000935700E8954C
:207F40001395103498F011270091570001700130D9F305E000935700E8950091570001707A
:207F60000130D9F301E100935700E8953296029709F0C7CF103011F00296E5CF11248091F8
:1E7F8000C00085FFB9CEBCCE8EE10E94C73CA2CD85E90E94C73C9ECDF894FFCF8000B3
:00000001FF
